:020000040800F2
:1000000058390020990100088B300008C1280008E9
:10001000893000083715000815340008000000007A
:1000200000000000000000000000000001010008C6
:100030003915000800000000450100088D30000857
:10004000B3010008B3010008B3010008B3010008C0
:10005000B3010008B3010008B3010008B3010008B0
:10006000B3010008B3010008B3010008B3010008A0
:10007000B3010008B3010008B3010008B301000890
:10008000B3010008B3010008B3010008B301000880
:10009000B3010008B3010008B3010008B301000870
:1000A000B3010008B3010008B3010008B301000860
:1000B000B3010008B3010008B3010008B301000850
:1000C000B3010008B3010008B3010008B301000840
:1000D000B30100088D330008B3010008B301000824
:1000E000B3010008B3010008B3010008DFF80CD029
:1000F00000F0C4FD00480047C957000858390020E7
:10010000224B19680868B0E8F00F80F30988BFF344
:100110006F8F4FF0000080F311884EF00D0E704786
:100120000000000006480068006880F3088862B696
:1001300061B6BFF34F8FBFF36F8F00DF00BF00BF0B
:1001400008ED00E0EFF30980BFF36F8F0F4B1A68E3
:1001500020E9F00F106008B54FF0500080F31188CF
:10016000BFF34F8FBFF36F8F06F0CAFB4FF0000055
:1001700080F31188BDE8084019680868B0E8F00FFE
:1001800080F30988BFF36F8F704700BFB401002070
:10019000EFF3058070470000064880470648004797
:1001A000FEE7FEE7FEE7FEE7FEE7FEE7FEE7FEE727
:1001B000FEE7FEE7F9300008ED0000082DE9F04108
:1001C0000024061B254671F1000605DA01240027EC
:1001D000D0EB070067EB0101161E73F1000605DA8C
:1001E0000027D2EB0702012567EB030300F05CFA5E
:1001F00086460E4617469C46AC4204D00025D0EBFE
:10020000050E65EB010624B10020D2EB000760EB80
:10021000030C704631463A466346BDE8F081202A19
:1002200004DB203A21FA02F00021704721FA02F3A0
:10023000D040C2F120029140084319467047D2B223
:1002400001E000F8012B491EFBD270470022F6E7BF
:1002500010B513460A4604461946FFF7F0FF20463C
:1002600010BDCAB2401E10F8011F8A4202D00029F8
:10027000F9D10020704700000FB400B58DB010A96F
:1002800009900B9000914FF0FF300A9000200C90E5
:1002900005480690054807906A4609A80F9900F09E
:1002A00049FA0DB05DF814FB510700086F0700080C
:1002B0002DE9FF5F1D464FF0FF3BD5E90146914612
:1002C0005F464FF00008A9697F1C01988847296A9A
:1002D000824688470028F6D1BAF1FF3F0CD024F4BB
:1002E000C064002E19DD600614D5BAF12B0F09D0B9
:1002F000BAF12D0F0ED103E0584604B0BDE8F09FCF
:1003000044F48064A9697F1C01988847761E824660
:10031000002E02DDBAF1300F03D0B9F1000F26D064
:1003200032E0A969761E44F400747F1C0198884766
:100330008246002E05DDBAF1780F06D0BAF1580FCB
:1003400003D0B9F1000F10D01EE0B9F1000F02D0B8
:10035000B9F1100F18D1A969761E24F400747F1C1E
:10036000019888478246102002E0082000E00A2019
:10037000814609E008FB0908A969761E44F4007467
:100380007F1C019888478246002E05DD494650466D
:1003900000F0BBF90028EDDAE96901988847A0056B
:1003A00002D46FF00100A8E7E00725D1600613D55D
:1003B000600502D5C8F1000000E0404629680A1D2A
:1003C0002A600968220501D5087015E0220701D5C9
:1003D000088011E008600FE02868011D29600068AE
:1003E000210502D580F8008006E0210702D5A0F89B
:1003F000008001E0C0F8008038467EE770B5064610
:1004000003F032F8046805460A220021304600F065
:100410000DFA2C6070BDF0B480EA0102D40F4200E6
:10042000B2EB410F02D20246084611464A0042D0C2
:10043000C30DDDB2C1F3C752AD1A202D35DAC1F3B9
:10044000160141F4000204B15242C5F1200602FA3D
:1004500006F12A411044B3EBD05F23D0C4B1012D83
:10046000A0EBC35009DCF0BC4FF0004202EAC352DB
:10047000DBB200F5000000F01ABA400000F1807015
:1004800000EBC350A0F1807040EAD170490009E050
:10049000490841EAC071A0EBC35000F500004008D4
:1004A00000EBC350F0BC00F0F9B96142012202EB4D
:1004B0004101001BF6E7F0BC704781F00041AAE75C
:1004C00080F00040A7E780EA010210B502F0004387
:1004D000400022D04A001FD0010E01EB1261C0F390
:1004E0005600C2F3560240F4000042F40002A0FBA2
:1004F000022000047F39140400D0401C50EA12404E
:1005000001D44000491EC2B20C0604EBD010401CBE
:100510004008802A02D003E0002010BD20F0010036
:10052000002900DA0020184310BD30B480EA01022F
:1005300002F0004530F0004221F0004013D090B1AD
:10054000C30DD40DC2F31601C0F31600E41A41F432
:10055000000140F400027D34914201D3641C00E0AC
:100560004900002C02DA30BC002070474FF4000034
:100570000023914201D3891A034340084FEA410105
:10058000F7D151B1914202D14FF0004105E002D2C2
:100590004FF0010101E06FF0010103EBC45028446A
:1005A00030BC00F07BB9C10F80EAE0700844CA0794
:1005B0009623002100F07BB996230022114600F01B
:1005C00076B900F0004220F00040C10DC0F31600E3
:1005D00040F400007F2901DA00207047962903DCEF
:1005E000C1F19601C84001E096398840002AF4D054
:1005F0004042704700F0004230F000400AD0C10D88
:1006000001F56071C0F3160042EA0151C2084007CB
:100610001143704700200146704701F0004330B499
:1006200021F0004150EA010206D00A0DA2F56072E5
:10063000C1F31301002A02DC30BC00207047440FD4
:1006400044EAC104C100E01830BC00EBC25000F025
:1006500025B90000002801DBC0F10040002901DBC2
:10066000C1F1004181427047002801DBC0F1004028
:10067000002901DBC1F100418842704730B50B46CB
:10068000014600202022012409E021FA02F59D42C2
:1006900005D303FA02F5491B04FA02F52844151E96
:1006A000A2F10102F1DC30BD2DE9F05F054600202A
:1006B00092469B4688460646814640241BE02846D3
:1006C000414647462246FFF7AAFD53465A46C01AFE
:1006D000914110D311461846224600F0E1FA2D1A36
:1006E00067EB01084F4622460120002100F0D8FAAE
:1006F00017EB00094E41201EA4F10104DFDC48463F
:1007000031462A464346BDE8F09F3A2800D23038A9
:1007100020F02002412A01D3A2F13700884201D300
:100720004FF0FF30704700000268114413780160F9
:1007300018467047D1600449516104491162002193
:100740001161114600F0DCBA29070008ED0C000821
:10075000426842B1016811F8013B23B1521EC0E961
:100760000012184670470121C160881E7047426818
:100770005AB1C368016843B983688B4205D0491EEA
:10078000521CC0E90012002070474FF0FF30704744
:100790000FB4002300B589B00CA900910B996FF03C
:1007A0000042CB601E4B06931E4B07930423CDE9FA
:1007B00001321D4A089202466B46002000F0CAFC36
:1007C00009B05DF814FB70B586B006464FF0FF30F7
:1007D0000091CDE90101002015460C4604903246F7
:1007E000694604A8FFF7D4FF02460498211825B1F2
:1007F00008B1084600E020462860049800280DD083
:10080000002A02DD0098884208D0081B0094CDE938
:1008100001043246694604A8FFF7BAFF06B070BD6E
:10082000510700086F070008ED0C00082DE9F0479C
:1008300091460F4680460446002614F8015B2DB110
:1008400000F050FA0068405DC007F6D12B2D02D0B1
:100850002D2D18D0641E4A463946204600F096FDDC
:1008600027B13968A14201D1C7F8008071054FF066
:1008700002040BD54042002803DD02F0F5FD0460C0
:10088000A007BDE8F08746F48066E4E70028F8DAC0
:1008900002F0EAFD04606FF00040F2E70029A8BF13
:1008A0007047401C490008BF20F00100704710B499
:1008B000B0FA80FC00FA0CF050EA010404BF10BC4E
:1008C000704749B1CCF1200421FA04F411FA0CF17B
:1008D00018BF012121430843A3EB0C01CB1D4FEAB4
:1008E00000614FEA102042BF002010BC704700EBAF
:1008F000C35010440029A4BF10BC7047401C4900DD
:1009000008BF20F0010010BC70472DE9FE4F804663
:1009100081EA0300C00F0C46009021F0004123F053
:100920000045B8EB0200A94105D240462146904659
:100930001C460B46024623F00040104347D0270DCB
:10094000C7F30A00C3F30A510290401A01904028ED
:100950006BDAC3F3130040F4801B0098924620B179
:100960000023D2EB030A63EB0B0B01985946C0F14D
:100970004002504600F094F906460D46504659464E
:10098000019A00F09CF910EB08006141002487EA0D
:10099000115284EAE7731A4340D0009A62B3019A75
:1009A000012A4FEA075215DC001B61EB02014FF0F0
:1009B000004202EA0752CDE90042001C41F58011D5
:1009C00032462B4600F040FD03B0BDE8F08F4046B4
:1009D0002146F9E7001B61EB0201001C41F5801381
:1009E00000185B412018A2F5001747EB030140EA0D
:1009F000D570B6196D4111E06D084FEA360645EA2B
:100A0000C0754FEA0752001B61EB0201001C41F563
:100A1000801149084FEA30000019514132462B46F7
:100A200003B0BDE8F04F00F000BD00980122400087
:100A30000023D0EB020263EBE073009821464FEAFB
:100A4000E074B8EB000061EB0401E9E783F00043D8
:100A50005BE781F0004158E72DE9FE4F81EA03048E
:100A600004F0004421F0004100944FF0000B23F00B
:100A7000004350EA01045ED052EA03045BD0C3F3A2
:100A80000A54C1F30A552C44A4F2F3340194A0FB98
:100A90000254C1F3130141F48011C3F3130343F46F
:100AA000801301FB024400FB034E840A970A44EAC8
:100AB000815447EA8357A4FB076802958D0A05FB1A
:100AC00007854FEA932C04FB0C542705029D4FEA3F
:100AD000065847EA1637B5EB08056EEB070C870E8C
:100AE000920E47EA811742EA8312A7FB0201B6EB96
:100AF0000B0164EB00042B0D43EA0C335E1844EB4E
:100B00001C50DA465146E7FB0201C5F313044FEAD5
:100B10000B3343EA14534FEA0432019C43EA0603C1
:100B2000A4F10C040294009CCDE900B400F08CFC0C
:100B300003B0BDE8F08F00200146F9E72DE9F04D44
:100B400081EA030404F0004B21F0004514464FF005
:100B5000000A23F0004150EA050220D054EA0102C5
:100B60001DD0C5F30A570246C5F31303C1F31300A2
:100B7000C1F30A5640F4801543F48013A7EB06082E
:100B8000101BD64608F2FD3873EB050002D308F1BE
:100B9000010801E092185B41B8F1000F03DA002070
:100BA0000146BDE8F08D00204FF4801106468446D2
:100BB0000EE0171B73EB050705D3121B63EB050350
:100BC00006434CEA010C49084FEA300092185B4199
:100BD00050EA0107EDD152EA030012D082EA040084
:100BE00083EA0501084305D0101BAB4106D2012260
:100BF000002306E000224FF0004302E06FF0010204
:100C000053101AEB06004CEB085110EB0A0041EBB5
:100C10000B01BDE8F04D00F008BCC1F30A52C1F36E
:100C2000130140F2FF3341F480119A4202DA0020AE
:100C30000146704740F233439A42A2F2334202DC4B
:100C40005242FFF7ECBA00F02BB8000030B5041E9A
:100C500071F1000404DB4FF00044404264EB0101F9
:100C6000141E73F1000405DB1C464FF00043524292
:100C700063EB0403994208BF904230BD064C074D18
:100C800006E0E06840F0010394E80700984710345C
:100C9000AC42F6D3FFF72EFA4C6C00086C6C0008DF
:100CA000202A04DB203A00FA02F10020704791402C
:100CB000C2F1200320FA03F3194390407047202A21
:100CC00006DBCB17203A41FA02F043EAE07306E074
:100CD00041FA02F3D040C2F1200291400843194684
:100CE0007047000000487047706A000810B504465D
:100CF000FFF7F8FF0068005D00F0010010BD000084
:100D00002DE9F34F8BB04FF0000801F10C000C46B9
:100D10004FF0010B46460DF1080A0190626901216E
:100D200001989047051E2DD0252D2CD0216A88478B
:100D3000C0B16269012101989047216A8847002863
:100D4000F7D1411E62690198904700E0761CA169C5
:100D50000B988847216A88470028F7D1E1690B98EA
:100D60008847DBE7A1690B9888470746A84201D16D
:100D7000761CD3E7E1690B9888477F1C02D1B8F154
:100D8000000F6FD046E1002762693D463946019861
:100D900090472A2804D162690121019890470125D2
:100DA000DFF884926269012101989047A0F1300137
:100DB0000A290AD24F45E5DC07EB870100EB410722
:100DC000303FDFD445F01005ECE7E90601D46FF0C1
:100DD00000476C280AD04C2814D0682815D06A28FF
:100DE0000DD074281CD07A281AD01DE06269012128
:100DF000019890476C2802D045F0040514E045F0B6
:100E000002050DE045F020050AE062690121019824
:100E10009047682802D045F0080505E045F40065D4
:100E20006269012101989047C4E9015765283DD0C6
:100E300019DC58287AD00CDC452837D004DC25286A
:100E400026D0412831D131E046282FD047282CD157
:100E50002CE05B2877D0612828D063287CD06428D8
:100E600023D15AE0D0E06F2848D008DC66281DD096
:100E700067281BD0692821D06E2816D127E070285A
:100E800045D0732868D0752847D078280DD14DE01B
:100E9000A1690B988847054625283FF469AFE169A9
:100EA0000B9888476D1C3FF46AAFB3E023466A464F
:100EB0006FF001000B9900F04DF99EE045F0400005
:100EC0006060A80723464FF0000236D43EE0E807F2
:100ED0007FF447AF2068011D21600068290501D516
:100EE00006701BE7290701D5068017E7A90703D578
:100EF000F117C0E9006111E706600FE745F0400017
:100F00006060A80723464FF0080216D41EE040F6A2
:100F10000E0125EA0100606016E045F040006060C7
:100F2000A80723464FF00A0207D40FE045F040001F
:100F30006060A80708D5234610226FF001000B99C6
:100F4000AFF3008059E007E0234610226FF0010064
:100F50000B99FFF7ADF950E04FF000094F464B46B3
:100F6000632802D05B2806D040E0E80601D40120C7
:100F7000A06001273AE062690121019890475E284C
:100F800005D14FF0010962694946019890472169EE
:100F900039B900210A46534643F82120491C082943
:100FA000FADBB0B3216969B9C11700EBD162531103
:100FB0000AEB830122F01F02821A01200B68904085
:100FC00003430B6062690121019890475D28E8D1D5
:100FD000B9F1000F09D00020514651F82020D2432A
:100FE00041F82020401C0828F7DB02AB224600977E
:100FF0006FF001000B99AFF3008000280CDA401C61
:1010000008D1BBF1000F05D04FF0FF300DB0BDE8A7
:10101000F08FFFE74046F9E7E90701D108F1010841
:1010200006444FF0000B79E6CCCCCC0C2DE9FF4FF9
:10103000087883B09946FF2805D0491C2D2804D094
:101040000024002008E000200BE00124F9E700EB79
:10105000800003EB4000491C0B78FF2BF7D104B153
:10106000404200230293147819461D462D2C01D0CE
:101070002B2C04D1521C2D2C13D000240294AA46F0
:101080001478FF2C0FD00A25A3FB057801FB0581FE
:101090004FF0000C03FB0C11521CE3194AEB010149
:1010A000EEE70124EAE7814453EA010002D019F592
:1010B000C87F06DA03980021C0E9001107B0BDE837
:1010C000F08F0025AE4E2F46DFF8B882184600F0AC
:1010D00009FACDE90001B9F1000002DAC9F1000412
:1010E00000E004460023A74A1AEB030B42EB045A24
:1010F00012E0E00707D02A46334638464146FFF75C
:10110000ABFC074688462A46334610461946FFF789
:10111000A3FC05460E466410002CEAD1DDE900016F
:10112000B9F1000F5A46534606DAFFF707FD3A4673
:101130004346FFF703FD05E0FFF78EFC3A464346C2
:10114000FFF78AFC029A0AB181F00041039AC2E9D2
:101150000001B3E72DE9FF4F1F468DB0D7E90146E7
:101160004FF0FF382E2045464FF000090B90B9692B
:101170006D1C0E988847396A824688470028F6D148
:10118000BAF1FF3F0AD024F4D064002E11DDBAF189
:101190002B0F08D0BAF12D0F0BD102E0404611B051
:1011A0008DE744F48064B9696D1C0E9888478246C7
:1011B000761E6946600501D52D2000E02B208DF8B4
:1011C000000001F1010B0DF1200809E0B9696D1C67
:1011D0000E98884782460F9844F40074761E056086
:1011E000002E02DDBAF1300FF0D00B998A453ED1C6
:1011F00044F0800406E00F99681CA9F1010944F449
:1012000000740860B9696D1C761E0E988847824686
:101210003028F0D02BE00B998A4505D1200603D465
:1012200044F08004761E18E0504602F0FFF908B33F
:101230000DF11301761E44F400748B4508D2AAF117
:1012400030000BF8010B200607D5A9F1010003E0DF
:10125000200602D409F101008146A00502D50F99AC
:10126000681C0860B9696D1C0E9888478246002E7C
:10127000D1DC53E0002E51DDBAF1650F02D0BAF196
:10128000450F4BD1A00549D5B9696D1C24F44074B4
:10129000761E0E9888478246002E0CDD2B2804D03F
:1012A000BAF12D0F07D144F48074B9696D1C0E9802
:1012B00088478246761EE00501D52D2100E02B21CE
:1012C00008F8011BCDF82C8021E00DF12901761ED4
:1012D00044F4007488450CD2AAF1300010F0FF00ED
:1012E00088F8000002D10B99884509D908F1010856
:1012F00006E0E00501D5244801E042F20F70814686
:10130000B9696D1C0E98884782460F980560002EBB
:1013100004DD504602F08AF90028D6D1F9690E980A
:101320008847FF208BF8000088F800000020069016
:1013300007904B466A4608A906A8FFF777FEA00566
:1013400002D46FF001002AE714F0240F0AD0E0075E
:1013500014D1DDE906123868031D3B600068C0E95E
:1013600000120BE0DDE90601FFF757F90146E0073F
:1013700004D13868021D3A600068016028460EE713
:10138000000014400000F03FF1D8FFFF2DE9F05FAE
:1013900082460078002715468B460AF10104B946BB
:1013A000302801D09DB113E014F8010B01277828F3
:1013B00003D0582801D045B10AE00DB1102D07D156
:1013C0000027102514F8010B02E0082500E00A258B
:1013D0000026B0460EE005FB080005FB06F10127DC
:1013E00001EB10461FFA80F8B6F5803F00D3B946EE
:1013F00014F8010B2946FFF788F90028EBDABBF156
:10140000000F05D00FB1641E00E05446CBF8004039
:10141000B9F1000F06D002F027F802210160C81EC2
:10142000BDE8F09F48EA0640FAE710B5141E73F1D4
:10143000000408DA401C41F1000192185B411A4394
:1014400001D120F0010010BD2DE9F04D92469B46E0
:1014500011B1B1FA81F202E0B0FA80F22032904686
:10146000FFF71EFC04460F4640EA0A0041EA0B0162
:1014700053465A46084313D0114653EA010019D087
:10148000C8F140025046FEF7CAFE05460E465046D9
:1014900059464246FFF704FC084305D0012004E00A
:1014A00020463946BDE8F08D0020054346EAE07647
:1014B0002C4337430A986305E40AA0EB0800002296
:1014C000FD0A44EA47540A3002D500200146E9E704
:1014D000010510196941DDE9084500196941BDE8B8
:1014E000F04DA2E70EB540F2334202920022CDE960
:1014F00000221346FFF7A8FF03B000BD30B58C18DB
:1015000010F8012B12F00F0301D110F8013B120962
:1015100006D110F8012B03E010F8015B01F8015B24
:101520005B1EF9D101E001F8013B521EFBD1A14243
:10153000E6D3002030BDFEE7704772B6FEE700003C
:1015400070B5044600F008F90546601C02D0044856
:101550000078044400F000F9401BA042FAD370BDAB
:10156000A40100202DE9F84FDFF8B8910024A9F17B
:10157000040B23460F2709F1040AABF1040EC9E05E
:101580000125A5402A40AA427DD1674ED1F804C06A
:10159000ACEB0608B44532D014DCBCF1030F3AD0F2
:1015A00009DCBCF1000F2AD0BCF1010F1CD0BCF14A
:1015B000020F31D11DE0BCF1110F17D0BCF1120F99
:1015C0002AD119E0B8F5881F19D006DCB8F5803F9C
:1015D00015D0B8F5801F1FD111E0B8F5001F0ED04F
:1015E000B8F5041F18D10AE0CB6815E0CB681B1DC5
:1015F00012E0CB6808330FE0CB680C330CE08B684B
:101600002BB1012B4FF0080303D0456104E0042304
:1016100002E0056100E00023FF2A01D8064601E050
:1016200000F104064FEA840501D9A5F12005D6F89A
:10163000008007FA05FC28EA0C0803FA05F548EAD9
:101640000508C6F800804D68ED0062D5374DAE69DB
:1016500046F00106AE61AD6924F0030605F0010510
:101660000095334D06EB050CDCF80850A607360F45
:1016700007FA06F825EA0805DFF8B880404503D1E7
:101680004FF0000817E044E0DFF8AC80404502D19D
:101690004FF001080FE0DFF8A480404502D14FF081
:1016A000020808E0DFF89880404502D14FF00308B7
:1016B00001E04FF0040808FA06F848EA0508CCF8FB
:1016C00008804D68D9F80060ED024D4601D51643FB
:1016D00000E096432E604D68DAF80060AD02554692
:1016E00001D5164300E096432E604D68DBF800609C
:1016F000AD035D4601D5164300E096432E604D686C
:10170000DEF80060ED03754601D5164300E0964310
:101710002E60641C0D682A46E5407FF431AFBDE8B9
:10172000F88F000008040140000011100010024072
:101730000000014000080140000C01400010014081
:10174000001401408068084000D0012070470AB1B1
:10175000016170470904FBE7014880687047000099
:10176000A401002070B5040025D094F83D000025A8
:1017700020B984F83C50204600F07EFA242084F8FA
:101780003D002068016821F00101016020680168C6
:1017900041F4004101602068016821F400410160CA
:1017A00000F0CAFB4D4A6168914201D84C4900E003
:1017B0004C49884201D2012070BD4B492368B0FBDF
:1017C000F1F15E6826F03F060E435E606368934267
:1017D00006D94FF4967359434FF47A73B1FBF3F182
:1017E0002368491C1E6A26F03F063143196261686E
:1017F000914210D84900401EB0FBF1F2521CC2F3D6
:101800000B02042A01D2042022E0B0FBF1F0401CBC
:10181000C0F30B001CE0A268F2B301EBC10303EBC1
:101820000116431EB3FBF6F35B1C43F480431B0518
:1018300049D092B301EBC10202EB0111401EB0FB93
:10184000F1F0401CC0F30B0040F4804040F4004035
:101850002168CA694CF6FF739A431043C861D4E902
:10186000071001432068026822F0C00211430160A2
:10187000D4E9030101432068826848F2FF339A43A8
:1018800011438160D4E9050108432168CA6822F048
:10189000FF021043C86001E00EE016E02068016816
:1018A00041F0010101602564202084F83D0025639A
:1018B00084F83E50002070BD01EB4106431EB3FB8F
:1018C000F6F35B1CB3E70120C2E701EB4101401EC8
:1018D000B0FBF1F0401CC0F30B00B7E7A08601009D
:1018E00080841E0000093D0040420F002DE9FF4F9B
:1018F00083B00025DDE910799A4693460446DDF869
:1019000048800095FFF728FF064694F83D00202800
:101910007CD11923012288492046009601F0E6F87F
:101920000028F5D194F83C0001286FD0012084F8FC
:101930003C0020680168C90703D1016841F001013A
:1019400001602068016821F400610160222084F8B0
:101950003D00402084F83E0025646762A4F82A9088
:10196000608D20857548E062CDE9008653465A4671
:101970002046049900F0BCFF00287CD1208DDFF8C0
:10198000C091202768B1012814D00228206801687E
:101990001ED041F480610160206841698069009037
:1019A000BCE02068416981690091016841F40071DF
:1019B0000160B3E02068016821F48061016072B6C3
:1019C0002068416981690091016841F400710AE071
:1019D00041F40061016072B620684169816900913B
:1019E000016821F48061016062B697E0032865D840
:1019F00001280CD0022843464FF0000249462046F9
:101A000000960BD001F072F8A8BB0CE091E03246D2
:101A10004146204601F010F968BB72E001F066F81B
:101A200048BB72B633E02068016821F48061016030
:101A300072B620680069616A0870606A401C606262
:101A4000208D401E2085608D401E60853D4846F2F9
:101A5000A8110068B0FBF1F0C0EBC00000EB800003
:101A60000090401E009007D020684069C0434007A6
:101A70000DD50098F5E727E044F8305F6773A5734C
:101A8000206940F02000206162B625731CE02068C8
:101A9000016841F40071016020680069616A0870A2
:101AA000606A401C6062218D491E2185618D491E3E
:101AB000618562B621680969017026E032464146B7
:101AC000204601F0B9F818B1012007B0BDE8F08F49
:101AD00020680069616A0870606A401C6062208D3D
:101AE000401E81B22185608D401E6085206842695C
:101AF000D243520712D4032903D1016821F4806133
:101B0000016020680069616A0870606A401C606258
:101B1000208D401E2085608D401E6085208D002810
:101B20007FF464AF84F83D7084F83E5084F83C50F4
:101B3000CBE70220C9E70000020010000000FFFF11
:101B400004000100B00100202DE9FF4F83B09A4648
:101B5000DDE9119793460446DDF84080FFF7FCFD70
:101B6000054694F83D0020287FD1192301224049E1
:101B70002046009500F0BAFF002876D194F83C008A
:101B8000012872D0012084F83C0020680168C90750
:101B900003D1016841F0010101602068016821F46E
:101BA00000610160212084F83D00402084F83E005F
:101BB00000262664C4F82480A4F82A90608D20852D
:101BC0002C48E062CDE9007553465A4620460499F8
:101BD00000F00CFF70B930E02A463946204601F08B
:101BE00063F858B1206C042804D12068016841F4DE
:101BF00000710160012007B0BDE8F08F606A2168C4
:101C000000780861606A401C6062218D491E89B2BB
:101C10002185628D521E628522685369DB435B0712
:101C20000BD469B100781061606A401C6062208D3D
:101C3000401E2085608D401E6085208D0028CBD100
:101C40002A463946204600F025FF0028CAD154F81C
:101C50003D0B016841F400710160202004F81E0969
:101C6000E67766770020C6E7FFE70220C3E70000BB
:101C7000020010000000FFFF10B586B000210091A7
:101C80000191029103910068114988421DD1114CC4
:101C9000A06940F00800A061A069694600F0080052
:101CA00004904FF4406000901220019001200290B7
:101CB000032003900848FFF755FCE06940F48000DA
:101CC000E061E06900F48000049006B010BD0000FF
:101CD0000058004000100240000C0140024881689A
:101CE0000278114481607047A4010020074810B5B4
:101CF000016841F010010160032000F075F80F2029
:101D000000F006F800F024F8002010BD002002408A
:101D100070B50D4D04464FF47A712878B1FBF0F0A0
:101D20000A490968B1FBF0F000F0DCFA48B9102C60
:101D300007D200222146501E00F036F800206C60C9
:101D400070BD012070BD0000A4010020B001002082
:101D50000C4808B5816941F001018161816901F098
:101D600001010091C16941F08051C161C06900F079
:101D7000805000900448416821F0E06141F000711A
:101D8000416008BD0010024000000140002809DB4E
:101D900000F01F02012191404009800000F1E02085
:101DA000C0F8001170470000F0B40E4B1B680C46E1
:101DB000C3F30223C3F10705042D00D90425191D1F
:101DC000072901D2002300E0DB1E012606FA05F1F7
:101DD000491E214099409E40761E16403143F0BC7A
:101DE00001F032BB0CED00E0064900F00702086884
:101DF0004FF6FF03184040EA0220034A10430860F0
:101E0000704700000CED00E00000FA052DE9F047F6
:101E10000F46050061D0434E306800F00700B8421D
:101E200009D2306820F0070038433060306800F095
:101E30000700B84251D128683B4C810712D54007B2
:101E400003D5606840F4E06060602878000703D53F
:101E5000606840F4605060606068A96820F0F0003D
:101E6000084360602878C00728D06868012810D02F
:101E70002168022810D0890700292EDA616821F034
:101E8000030101436160FFF767FC804641F2883936
:101E90000DE021688903EFE78901EDE7FFF75CFCBE
:101EA000A0EB0801494502D90320BDE8F08760682E
:101EB000696800F00C00B0EB810FEFD1306800F0E2
:101EC0000700B8420BD9306820F007003843306073
:101ED000306800F00700B84201D00120E5E728781B
:101EE000400705D56068E96820F4E0600843606059
:101EF0002878000706D56068296920F4605040EA18
:101F0000C100606000F038F86168084AC1F303114D
:101F1000515CC8400649086006480068FFF7F8FEB3
:101F20000020C2E70020024000100240D6690008ED
:101F3000B0010020A8010020044805490068496854
:101F4000044AC1F30221515CC8407047B00100202F
:101F500000100240E6690008044805490068496825
:101F6000044AC1F3C221515CC8407047B00100204F
:101F700000100240E66900080E4A51680E4801F060
:101F80000C03042B11D0082B0FD10C48C1F3834351
:101F9000C903C05C0AD55168084AC1F34041921E8A
:101FA000515C054A5043B0FBF1F070470449484387
:101FB000704700000010024000127A00C669000855
:101FC00000093D002DE9F84F040070D02078C04D85
:101FD000C00749D06868C0F38100012807D068684D
:101FE000C0F38100022809D16868C00306D52868BB
:101FF000800339D560680028E7D035E06068B0F527
:10200000803F0BD010B1B0F5A02F11D0286820F47C
:1020100080302860286820F4802002E0286840F49E
:1020200080302860606890B1FFF796FB06460AE0B2
:10203000286840F480202860F0E700BFFFF78CFBA1
:10204000801B642873D828688003F7D50CE0FFF75D
:1020500083FB064605E000BFFFF77EFB801B64287C
:10206000F0D828688003F7D420789A4E80074FF084
:1020700001094FF0000839D5686810F00C0F07D03F
:102080006868C0F38100022809D16868C00306D4DB
:102090002868800714D52069012808D110E020693C
:1020A000B0B1C6F80090FFF757FB074605E00AE11C
:1020B000FFF752FBC01B0228C4D828688007F7D559
:1020C0002868616920F0F80040EAC10028600DE04E
:1020D000C6F80080FFF740FB074604E0FFF73CFB33
:1020E000C01B022823D828688007F7D4207800076F
:1020F0002CD57948A169D9B1C0F80090FFF72CFB25
:10210000074604E0FFF728FBC01B02280FD8686AC7
:102110008007F7D571484FF4FA510068B0FBF1F031
:10212000009000BF0098411E0091FAD20EE080E0BE
:10213000C0F80080FFF710FB074604E0FFF70CFB38
:10214000C01B022875D8686A8007F7D4207840073A
:1021500060D5E8690027C00008D4E86940F08050E5
:10216000E861E869012700F0805000905C48016850
:10217000C90513D40168834641F480710160FFF7FB
:10218000EBFA824606E000BFFFF7E6FAA0EB0A0092
:1021900064284ED8DBF80000C005F5D5E0680128BA
:1021A0000AD008B1052813D0286A20F0010028625F
:1021B000286A20F0040002E0286A40F0010028624A
:1021C000E06841F2883B98B1FFF7C6FA82460BE01F
:1021D000286A40F004002862EEE700BFFFF7BCFA6F
:1021E000A0EB0A0159455AD8286A8007F6D50CE0B9
:1021F000FFF7B2FA824605E0FFF7AEFAA0EB0A015C
:1022000059454CD8286A8007F6D41FB1E86920F0F8
:102210008050E861E06988B36968C1F381010229EF
:1022200044D00228C6F8608004D0FFF795FA04462F
:1022300038E034E0FFF790FA074604E0FFF78CFA45
:10224000C01B02282BD828688001F7D4206AB0F57B
:10225000803F05D16868A16820F4003008436860B9
:10226000D4E908010843696821F4741108436860DF
:10227000C6F86090FFF770FA044606E025E000BF5C
:10228000FFF76AFA001B022809D828688001F7D5F1
:102290001BE000BFFFF760FA001B022802D90320F1
:1022A000BDE8F88F28688001F4D40EE00128F7D04B
:1022B0006868226A00F48031914204D1616A00F4B6
:1022C0007010884201D00120EAE70020E8E7000012
:1022D000001002400000424280044242B00100204F
:1022E0000070004010B5401EB0F1807F01D3012086
:1022F00010BD4FF0E02460610F21601701F0A4F8D9
:102300000020A06107202061002010BD10B590F8CA
:102310003C20012A22D0012280F83C20CA688C6827
:1023200022F4407222434C6822F4806222430C68FB
:1023300022F4006222430C6922F4805222434C6949
:1023400022F400522243C969002322F480420A4346
:1023500001684A6480F83C30002010BD022010BDA6
:1023600070B590F83C20012A26D0012480F83C402A
:10237000022280F83D2003685A689D6822F07006AA
:102380000A6832435A600D4B02689A4208D0B2F193
:10239000804F05D00A4B9A4202D00A4B9A4204D190
:1023A000496825F080031943916080F83D40002181
:1023B00080F83C10084670BD022070BD002C014022
:1023C00000040040000800402DE9F0410D460400E3
:1023D00003D094F83D0018B108E00120BDE8F08179
:1023E000002084F83C00204600F040F8022084F8E9
:1023F0003D002068816844F2070291438160211DFD
:10240000206800F07BFE226890689169166A2B684C
:10241000AF69034340F20330814341EA0721A868D2
:10242000EF6908434FF6FC418843E96840EA07201A
:10243000014328692F6A000140EA073008436968B0
:102440006D6926F0220646EA051529439360226845
:10245000906154F8460B0162012004F81F09E075F1
:102460002076E0762077A0750020B7E700B585B02C
:10247000002100910191029103911A4B02681A48C0
:10248000C0219A4213D1C26942F00202C261C269FC
:1024900002F002020492826942F0040282618069C1
:1024A000009100F0040004906946104815E0104BBC
:1024B0009A4214D1C26942F00402C261C26902F0B8
:1024C00004020492826942F00802826180690091EC
:1024D00000F00800049069460648FFF743F805B08D
:1024E00000BD000000040040001002400008014050
:1024F00000080040000C014070B590F83E600446B2
:1025000090F83F5090F8423090F84320022021B1DB
:1025100004290ED0012E1BD114E0012E18D1012B5D
:1025200016D184F83E0084F8420001220021206880
:1025300020E0012D0CD1012A0AD184F83F0084F853
:10254000430014E0012D03D1012B01D1012A01D058
:10255000012070BD84F83E0084F83F0084F84200FA
:1025600084F8430001220021206800F003FE0122CC
:102570000421206800F0FEFD2068016841F001019F
:102580000160002070BD000010B586B000210091F0
:10259000019102910391124C0368124902221248E0
:1025A000A34209D18B6943F004038B61896901F06F
:1025B00004010491C1140BE0B3F1804F0ED18B697B
:1025C00043F004038B61896901F0040104910C213B
:1025D000CDE9001269460392FEF7C4FF06B010BDB4
:1025E000002C0140001002400008014070B5044674
:1025F00090F83C0000260D4601280FD0012084F8F9
:102600003C006AB1042A1DD0082A2FD00C2A3FD0E2
:102610000126002084F83C00304670BD022070BDC9
:10262000206800F0B5FD2068816941F008018161F2
:102630002068816921F004018161206881692A692B
:10264000114311E0206800F0CBFD2068816941F45E
:10265000006181612068816921F480618161206865
:1026600081692A6941EA02218161D2E7206800F08C
:10267000E3FD2068C16941F00801C1612068C169BA
:1026800021F00401C1612068C1692A69114311E088
:10269000206800F0FDFD2068C16941F40061C1615E
:1026A0002068C16921F48061C1612068C1692A691B
:1026B00041EA0221C161ACE710B5040003D094F8EF
:1026C0003D0010B107E0012010BD002084F83C005F
:1026D000204600F01FF8022084F83D00211D2068EC
:1026E00000F00CFD012084F8460084F83E0084F8D8
:1026F0003F0084F8400084F8410084F8420084F8E8
:10270000430084F8440084F8450084F83D0000202C
:1027100010BD000008B50C4A01680C48914207D171
:10272000816941F400618161806900F4006009E021
:10273000B1F1804F07D1C16941F00101C161C069A8
:1027400000F00100009008BD002C01400010024084
:1027500010B50446022249B104290ED0082913D02D
:1027600094F84100012816D0012010BD94F83E00D5
:102770000128F9D184F83E200FE094F83F000128A9
:10278000F2D184F83F2008E094F840000128EBD112
:1027900084F8402001E084F841200122206800F004
:1027A000E9FC0F492068884203D1426C42F40042A0
:1027B00042642068884208D0B0F1804F05D00949B2
:1027C000884202D00849884204D1816801F007019B
:1027D000062903D0016841F001010160002010BD0D
:1027E000002C0140000400400008004070B50400C7
:1027F00004D094F84100002510B106E0012070BD1E
:1028000084F84050204600F023F8242084F841004A
:102810002068C16821F40051C160204600F05AFDD3
:102820002068016921F4904101612068416921F02B
:102830002A0141612068C16841F40051C1606564AA
:10284000202084F8410084F842006563002070BDB8
:1028500030B585B00024009401940294039400687C
:102860001449884224D11448816941F4804181612E
:10287000816901F480410491816941F00401816121
:1028800080690E4D00F0040004904FF40070009039
:10289000022001900320039069462846FEF762FE5D
:1028A0002815CDE90004694628460294FEF75AFE31
:1028B00005B030BD00380140001002400008014062
:1028C000FEE701684A69D24352050FD46FF4806273
:1028D0004A61002140F8301F20224273817302694F
:1028E00042F004020261017301207047002070472A
:1028F0002DE9F84F0446006889460B9D016898460B
:10290000174641F4806101602068016841F48071DC
:10291000016000954FF0011B0022594620460A9B9A
:1029200000F0E4F84FF4007A40B120680068C00578
:1029300001D5C4F840A00320BDE8F88F216809F054
:10294000FE0008612B46284920460A9A00F016F935
:10295000F0BB20684169806900902A4620460A99A8
:1029600000F0A2F940B1206C04283AD12068016837
:1029700041F40071016034E0FEB2B8F1010F09D0FA
:102980002168380A08612A4620460A9900F08CF925
:102990000028E8D1206806612A4620460A9900F0FE
:1029A00083F90028DFD12068016841F4807101605B
:1029B00000950022594620460A9B00F097F800280F
:1029C000B3D1216809F0FF0040F00100086100E088
:1029D00007E02B46044920460A9A00F0CFF8002869
:1029E000AAD00120A8E70000020001002DE9F84369
:1029F000044600680D46DDE90897016898461646CA
:102A000041F4807101604B4600224FF001112046D5
:102A1000009700F06BF848B120680068C00502D547
:102A20004FF4007020640320BDE8F883216805F0AE
:102A3000FE0008613B464A461549204600F09EF8D4
:102A400088B920684169806900903A464946204625
:102A500000F02AF948B1206C042804D120680168EC
:102A600041F4007101600120DEE7F5B2B8F1010F19
:102A700009D02168300A08613A464946204600F0EC
:102A800013F90028E7D1206805610020CCE7000099
:102A90000200010070B516460D4604461EE02046B1
:102AA000FFF70FFF08B1012070BD681C16D0FEF7BC
:102AB00053FE801BA84200D885B920684069C043F6
:102AC00040070BD5002044F8300F20216173A0731C
:102AD000216941F0200121612073E4E72068406909
:102AE000C0434007DBD4002070BD00002DE9F04753
:102AF000984617460D460446C1F30746DDF8209078
:102B00002AE000BFB8F1FF3F26D0FEF725FEA0EB7C
:102B10000901414502D8B8F1000F1DD12068012EEE
:102B200016D0806925EA00000004000C12D00020B5
:102B3000B84211D1002044F8300F20216173A073F6
:102B4000216941F02001216120730120BDE8F08757
:102B50004069E7E70120EBE72068012E0AD0806991
:102B600025EA00000004000C06D00020B842C9D0BD
:102B70000020EBE74069F3E70120F7E72DE9F04794
:102B8000984616460D4604464FF000094FF0200ABD
:102B9000C1F3074723E020684069C043400515D4CE
:102BA0002068016841F40071016021686FF4806061
:102BB0004861C4F8309084F83DA084F83E90216CC0
:102BC00041F00401216484F83C9021E0701C06D09F
:102BD000FEF7C2FDA0EB0800B04203D816B1012FEA
:102BE0001FD021E02068012F15D0806925EA000060
:102BF0000004000C18D000BF44F8309F84F80DA0EA
:102C000084F80E90216941F02001216184F80C9034
:102C10000120BDE8F087406925EA00000004000CAF
:102C2000EAD12068406901E02068806925EA000057
:102C30000004000CAFD1ECE72DE9F04100259046EF
:102C40000E460446202728E04069C043C0060CD445
:102C500054F8301B6FF01000486144F81059677742
:102C6000A577206A2062257714E0FEF775FDA0EBBA
:102C70000800B04200D886B920684069C0434006C9
:102C80000BD544F8305F6773A573206940F02000CE
:102C9000206125730120BDE8F08120684169C943A6
:102CA0004906D1D40020F6E770B516460D46044615
:102CB0001EE02046FFF705FE08B1012070BD681C2C
:102CC00016D0FEF749FD801BA84200D885B92068C0
:102CD0004069C04300060BD5002044F8300F202186
:102CE0006173A073216941F0200121612073E4E741
:102CF00020684069C0430006DBD4002070BD00009E
:102D00002DE9F04786B000243F48009401940294D6
:102D10000394816941F010018161816901F0100122
:102D20000491816941F020018161816901F02001F4
:102D30000491816941F004018161816901F004011C
:102D40000491816941F0080181618069DFF8BC80EC
:102D500000F008004FF40055049000222946404638
:102D6000FEF7F5FCDFF8A890002230214846FEF778
:102D7000EEFCDFF8A0A04CF21807002239465046BE
:102D8000FEF7E5FC0095022601250396CDE90154E6
:102D900069464046FEF7E6FB48F20310CDE9000421
:102DA000694648460294FEF7DDFB3020CDE9000578
:102DB000CDE9024669464846FEF7D4FB43F20300DC
:102DC000CDE90004694650460294FEF7CBFB4FF470
:102DD0004060009012200190032003906946504605
:102DE000FEF7C0FB00970396CDE9015469465046B3
:102DF000FEF7B8FB68028DE8310069465046FEF7E1
:102E0000B1FB06B0BDE8F0870010024000100140A1
:102E100000080140000C01400D4810B50B4901604D
:102E20000C49416000214FF480428160C0E90312E7
:102E300041618161C1610162FEF794FC002803D009
:102E4000BDE81040FEF779BB10BD000000580040FF
:102E500040300020801A060010B592B000240F9474
:102E60001C2108A81094FDF7F1F920216846FDF710
:102E7000EDF920481E4901604721C0E9011440F2E4
:102E80007111C0E9031444618461FFF715FC08B1B6
:102E9000FEF753FB0F940FA916481094FFF760FA42
:102EA00008B1FEF74AFB60200890B920CDE909047B
:102EB0000C940D940C2208A90E480E94FFF796FB73
:102EC00008B1FEF73AFB00944FF40050CDE90440FE
:102ED000029401940394694606480794FFF716FA92
:102EE00008B1FEF72AFB0348FFF74EFB12B010BDF6
:102EF000002C0140F401002010B58AB00024079492
:102F00001C2168460894FDF7A1F91A484FF080414A
:102F100001604721C0E901146321C0E90314802145
:102F20008161FFF7C9FB08B1FEF707FB079407A90A
:102F300010480894FFF714FA08B1FEF7FEFA602073
:102F4000CDE900040294082269460A480494FFF778
:102F50004DFB08B1FEF7F1FA0C2269460548FFF770
:102F600045FB08B1FEF7E9FA0248FFF70DFB0AB08E
:102F700010BD00003C02002010B58CB02421684632
:102F8000FDF764F900240F20099404900890144878
:102F900012490A94C0E900144FF6FF71C0E90241DA
:102FA000046184610320CDE900040120CDE902041D
:102FB000CDE9054069460A480794FFF705FA08B1CC
:102FC000FEF7BBFA099409A905480A94FFF7C8F966
:102FD000002801D0FEF7B1FA0CB010BD000400408B
:102FE0008402002010B58CB024216846FDF72EF92C
:102FF00000240F20099404900890144812490A9460
:10300000C0E900144FF6FF71C0E902410461846118
:103010000320CDE900040120CDE90204CDE90540FB
:1030200069460A480794FFF7CFF908B1FEF785FA19
:10303000099409A905480A94FFF792F9002801D0DC
:10304000FEF77BFA0CB010BD00080040CC02002057
:103050000B4810B5002181600C22C160C0E9041248
:10306000084A02604FF4E13281614260C161FFF7BA
:10307000BDFB002803D0BDE81040FEF75EBA10BDCE
:103080001403002000380140FEE7FEE710B5FEF70C
:1030900025FEBDE8104002F029BB30B58FB02821D5
:1030A0006846FDF7D3F814210AA8FDF7CFF80121EF
:1030B0000804CDE900100024029402250491CDE912
:1030C00007504FF4E01009906846FEF77BFF08B107
:1030D00072B6FEE70F20CDE90A054FF48060CDE916
:1030E0000C4002210AA80E94FEF790FE002801D0A1
:1030F00072B6FEE70FB030BD70470000F0B5026851
:10310000194B1A4C1A4D4FF08047984205D0B842DF
:1031100003D0A04201D0A84203D122F070064A6831
:103120003243984205D0B84203D0A04201D0A84211
:1031300003D122F44074CA6822434C6922F0800211
:10314000224302608A68C2620A688262984201D1A0
:1031500009690163012141610169C90703D001695E
:1031600021F001010161F0BD002C0140000400408C
:103170000008004010B501F01F030121046A9940C6
:103180008C430462016A9A401143016210BD000041
:1031900030B5036A026A22F0010202624268846961
:1031A00024F073050C682C4323F002058B682B4335
:1031B0000A4DA8420BD123F00805CB6822F44072D7
:1031C0002B434D6923F0040315438A692A43426067
:1031D000846149684163036230BD0000002C0140F6
:1031E00030B5026A036A23F01003036243688469FE
:1031F0000D6824F4E64444EA05248D6822F0200298
:1032000042EA05120B4DA8420ED1CD6822F0800291
:1032100042EA05124D6923F4406343EA85038D6950
:1032200022F0400243EA8503436084614968816378
:10323000026230BD002C014030B5036A026A22F4FC
:10324000807202624268C46923F4007324F073053B
:103250000C682C438D6843EA05230C4DA8420ED11F
:10326000CD6823F4006343EA05234D6922F44052FC
:1032700042EA05128D6923F4806342EA0512426036
:10328000C4614968C163036230BD0000002C014085
:1032900030B5046A026A22F4805202624268C3694D
:1032A0000D6823F4E64343EA05238D6824F40054B3
:1032B00044EA0534064DA84204D14D6922F4804207
:1032C00042EA85124260C36149680164046230BD0C
:1032D000002C014070B5044600680169E26821F4E1
:1032E0004051114301612169A068084361690843A5
:1032F0002168CA6841F20C639A430243CA6020689D
:103300004169A26921F44071114341611E4920685D
:10331000884202D1FEF720FE01E0FEF70DFE00EB31
:10332000C00101EB0012606864218000B2FBF0F381
:10333000B3FBF1F36FF018067343B2FBF0F5B2FB89
:10334000F0F605EB8305322303EB0515B5FBF1F52C
:10335000B6FBF1F605F0F00505EB0615B2FBF0F64D
:10336000B2FBF0F0B0FBF1F06FF01802504306EB47
:10337000800003EB0010B0FBF1F0216800F00F00BB
:103380002844886070BD00000038014030B51E48F8
:10339000016800F104031D480A0616D51A4A0C32CA
:1033A0001468240611D5C4888588AC4209D0184A0F
:1033B000C488125D1A60C288521CC2F30C02C2801B
:1033C00003E0146824F0800414608A0617D5196895
:1033D0000F4BCAB20D49203B0A2A097807D00D2AA3
:1033E00005D01F2902D25A54491C017030BD002952
:1033F000FCD000225A5402700121417030BD0807F0
:10340000FCD5186830BD00000038014024000020C1
:103410007C030020FEE700000FB41CB5024600202C
:1034200007AC00290BD0491ECDE90021054B6A46A7
:103430002146069800F002F9009A002111701CBC88
:103440005DF814FB6B3D00080907090E002804DB3A
:1034500000F1E02080F80014704700F00F0000F148
:10346000E02080F8141D704700487047F0010020EC
:103470000148006870470000F001002002E008C821
:10348000121F08C1002AFAD170477047002001E0DE
:1034900001C1121F002AFBD17047000001490860DA
:1034A00070470000F00100202DE9FF5F82B000218D
:1034B000DDE90430020DDDF840B0034318D044F6D6
:1034C0001050A2F2FF3242431514119801281FD068
:1034D000A5EB0B00401C5FEA000A4FF000064E4FC0
:1034E000DFF83891B046504615D5CAF1000413E014
:1034F000119801244AA3012801D16FEA0B01029817
:10350000119AC0E90031C0E9024206B0BDE8F09F5F
:10351000CBF10000DFE704460021404A491842EBA6
:103520000450CDE9001012E0E00707D032463B46D8
:1035300040464946FDF790FA8046894632463B466A
:1035400010461946FDF788FA06460F466410002C0F
:10355000EAD1DDE90401DDE90023BAF1000F06DA62
:10356000FDF77AFA42464B46FDF776FA05E0FDF79D
:10357000E5FA42464B46FDF7E1FA04460E460022C4
:10358000284BFDF763FB03D84FF0FF30014607E0FF
:103590000022254B20463146FDF7B7F9FDF73DFBEC
:1035A000102409E0002C0ADB0A220023FDF77CF836
:1035B000039B30321A55641E50EA0102F2D1641C9A
:1035C000039AC4F111031444119A012A03D0012271
:1035D00008430DD10AE0084304D000204FF0110B3E
:1035E000119072E7A3EB0B056D1E0DE05B4504DD4A
:1035F0004FF0000205F1010504E003DA4FF000028C
:10360000A5F10105002AECD002981199C0E9023118
:10361000C0E9004579E70000000014400000F03FD9
:10362000300000000000F0430000E03F30380A287E
:1036300001D2012070470020704700002DE9FF4FA4
:1036400095B09B468946064600250FE2252877D18E
:1036500000242746F84A0121059400E0044316F8A7
:10366000013F203B01FA03F01042F7D130782A28BD
:1036700011D06FF02F033078A0F13002092A16D84C
:10368000059A44F0020402EB820203EB420210446A
:10369000761C0590EFE759F8042B0592002A03DA0F
:1036A000504244F40054059044F00204761C3078F3
:1036B0002E2816D116F8010F44F004042A280DD044
:1036C0006FF02F023078A0F13003092B09D807EBF7
:1036D000870302EB4303C718761CF3E759F8047B12
:1036E000761C30786C280FD006DC4C2817D0682860
:1036F0000DD06A2814D104E0742810D07A280FD194
:103700000DE044F400140AE044F4801401E044F4B1
:1037100040147278824202D104F58014761C761C23
:10372000307866280BD013DC582877D009DC0028C5
:1037300075D04528F6D04628F4D047281AD19DE107
:1037400018E0632835D0642879D0652812D195E136
:10375000702873D008DC6728F1D069286FD06E28F4
:103760000DD06F2806D1B5E073282CD0752875D000
:10377000782874D05A46179990476D1C75E1C4F3A8
:103780000250022809D003280DD0D9F800100428CF
:103790000DD00D6009F1040967E1D9F80010EA17AE
:1037A000C1E90052F6E7D9F800100D80F2E70D707C
:1037B000F0E719F8041B8DF8001000208DF80100C7
:1037C000EA46012003E059F804AB4FF0FF306107EF
:1037D0004FF0000102D40DE008F101018846B94222
:1037E0000FDA8045F8DB1AF808100029F4D108E058
:1037F00008F1010188468142FADB1AF80810002915
:10380000F6D105985B46A0EB080721463846179A83
:1038100000F094FA284400EB080507E04DE029E1A8
:103820000DE01AF8010B5A4617999047B8F10108B4
:10383000F7D25B4621463846179A13E142E00A2246
:103840000092C4F302524FF0000A022A08D059F83D
:1038500004CB032A4FEAEC710AD00DE029E02AE0FC
:1038600009F1070121F00702F2E802C1914609E0DF
:103870000FFA8CFC4FEAEC71042A03D14FFA8CFC4E
:103880004FEAEC71002907DA0A460021DCF1000C4E
:1038900061EB02012D2202E0220504D52B228DF8D6
:1038A0000420012203E0E20701D02022F7E790463E
:1038B00059E00A2102E010220DE010214FF0000A29
:1038C00000910BE010224FF0000A44F00404082796
:1038D000009203E008224FF0000A0092C4F3025263
:1038E000022A05D059F804CB0021032A08D009E0A8
:1038F00009F1070121F00702F2E802C1914605E053
:103900001FFA8CFC042A01D10CF0FF0C4FF00008C8
:10391000220728D5702806D0009B83F0100353EAB5
:103920000A0305D00EE040228DF80420012208E0B1
:103930005CEA010206D030228DF804208DF80500E3
:1039400002229046009B83F0080353EA0A030AD13F
:103950005CEA010201D1620705D530228DF804200E
:103960004FF001087F1E582804D034A003900EA801
:1039700002900DE036A0F9E753466046009AFCF746
:1039800093FE84460398825C0298401E0290027067
:103990005CEA0100F0D1029806A9081A00F1200A99
:1039A000600702D524F4803400E00127574502DD8A
:1039B000A7EB0A0000E0002000EB0A010090059848
:1039C0004144401A0590E00306D45B462146179A0D
:1039D000059800F0B3F90544002706E001A85A460F
:1039E000C05D179990476D1C7F1C4745F6DBE003CF
:1039F0000CD55B462146179A059800F09FF90544BF
:103A000004E030205A46179990476D1C0099481ED3
:103A100000900029F5DC08E0029802995A460078E7
:103A2000491C0291179990476D1CBAF10001AAF147
:103A3000010AF1DC65E10000092801003031323370
:103A400034353637383961626364656600000000DA
:103A500030313233343536373839414243444546C4
:103A60000000000000F058F90544761C307800286A
:103A70007FF4ECAD19B02846BDE8F08F620700D4A2
:103A8000062709F1070222F0070CFCE80223E146B1
:103A900003F000485FEA080C02D00FF2702C0DE032
:103AA0005FEA045C02D50FF2682C07E05FEAC47C91
:103AB00002D00FF2602C01E0AFF2700C4FF0FF3833
:103AC00023F00043CDF850C065280CD006DC452813
:103AD00009D046281DD047283DD13DE0662818D0A2
:103AE00067287ED138E00021112F01DB112000E092
:103AF000781CCDE9000106A90EA8FFF7D5FCDDE989
:103B00000F010E9A03910021009207F1010A04911E
:103B10004DE04FF000400097CDE9011006A90EA836
:103B2000FFF7C2FCDDE90F0203920E9B1199002200
:103B3000DDF80CA00093049211B9791C00EB010A86
:103B4000B7EB0A0004D4C0F1FF3007F1010A04907A
:103B5000AAEB0700019044E0012F00DA01270021C1
:103B6000112F01DD112000E03846CDE9000106A942
:103B70000EA8FFF799FCDDE90F010E9A03910021D1
:103B800004910092BA4621070CD40399514500DAFA
:103B90008A46BAF1010F05DD009AAAF10101515CD4
:103BA000302908D0B84202DA10F1040F06DA0121F8
:103BB000CDE9011015E0AAF10101E9E7002805DCD3
:103BC000049901440491AAEB000102E0411C514513
:103BD00000DD8A460499401A401C01904FF00040D5
:103BE0000290200704D40198504501DBCDF80480F1
:103BF00000208DF84F0002980DF14F07B0F1004FF3
:103C000025D02B200E9002984FF0020800280CDAE5
:103C1000404202902D200E9007E00A210298FCF706
:103C20002DFD3031029007F8011DB8F10001A8F117
:103C30000108F2DC02980028EFD1791E0E98087076
:103C4000307800F0200040F0450007F8020D12A87F
:103C5000C01B00F107081498007800B1012000EBA8
:103C60000A01019801EBE07105984144401A401E99
:103C70000590E00306D45B462146179A059800F0AC
:103C80005DF805441498007818B15A461799904782
:103C90006D1CE00324D55B462146179A059800F079
:103CA0004DF805441CE00498002807DBDDE903011A
:103CB000884203DD0098405C179901E01799302095
:103CC0005A469047049805F10105401C049001985C
:103CD000401E019004D12E205A46179990476D1C22
:103CE000BAF10001AAF1010ADDDC05E017F8010BC9
:103CF0005A46179990476D1CB8F10001A8F10108C8
:103D0000F4DC5B462146179A0598ABE62D000000CF
:103D10002B000000200000002DE9F04104460025A2
:103D20001E461746880404D405E039462020B047D3
:103D30006D1C641EF9D52846BDE8F0812DE9F041DF
:103D4000044600251E469046C80301D5302700E0F2
:103D50002027880404D505E041463846B0476D1C4D
:103D6000641EF9D52846BDE8F0814A68002A06D0CD
:103D70000A68531C0B6010704868401E486070470A
:103D800010B501F039FD00F0E7FC00F0E9F800F0B3
:103D900067FC01F0D5FC01F045FF01F0D5FD00F016
:103DA00037FB00F0A3FB08B100F0DEFA00F032F9B7
:103DB00001F064FB02F06EF8BDE8104002F016B8A6
:103DC0002DE9F041FDF7C8FC414C0546A069281AD1
:103DD0000A2808D3A56100F079FC00F0FDF800F096
:103DE000CFFB01F0EFFDE0880026002820691CD001
:103DF000281A0A280DD3256101F038FF02F0FAFCD9
:103E0000B4F9040000F00EFDE0880A2803D90A384E
:103E1000E080BDE8F081E68001F086FD00210846E3
:103E200001F0BCFB26702BA038E0291A0A290CD31C
:103E3000256108B1281A208101F018FF02F0DAFC90
:103E4000207810B90A2000F0FDF800F0ABF9022844
:103E50002AD0012828D04FF4FA706169691A81428A
:103E600002D3656102F0B8FB02F0AAF800F09AF9FB
:103E700001254FF6FF77012818D002281DD0A07821
:103E80000028C6D060780028C3D16089401C80B269
:103E90006081B0F5967FBCD9657014A002F014F86B
:103EA000BDE8F04102F00EBC3220D6E7E570A089F3
:103EB000B842AED2401CA081ABE7E07820B1A07838
:103EC00010B902F08FFCA781A5706681A1E7000000
:103ED000040000205445535420646F6E6520286C04
:103EE000696E652D666F6C6C6F7729002D2D2D2006
:103EF0004155544F2054524143452044554D502084
:103F0000286361722073746F7070656429202D2D91
:103F10002D00000030B583B00446FFF7A9FA05462E
:103F20000020CDE90000024621466846FCF74BFC24
:103F30002846FFF7B3FADDE9000103B030BD000009
:103F400070B5054640F68C2000F030F8034C012097
:103F50002070FDF701FC2844606070BD3C0000202B
:103F60000A4810B5026847219162026840F2711157
:103F7000D162C1600068002404640C210348FEF78C
:103F8000E7FB03480470446010BD0000F40100200A
:103F90003C000020034900200870034909680864B8
:103FA000704700003C000020F4010020642800D28B
:103FB00064200749B1FBF0F0022800D20220054A34
:103FC000411E1368D962D1601168400808647047C7
:103FD00040420F00F401002010B5074C2078002863
:103FE00008D0FDF7B9FB6168401A03D4BDE8104062
:103FF000FFF7D0BF10BD00003C000020044910B501
:10400000887001F091FCBDE81040042000F0FAB87F
:104010009801002010B501F087FC0349002088704A
:10402000BDE8104000F0EEB8980100200448007888
:1040300008B1032802D1012000F0E4B87047000065
:10404000980100202DE9F0410646FDF785FB4C4C18
:104050000546207804280DD0022821D001281FD041
:1040600000F02CFB2078052879D2DFE800F0252A23
:104070005468790000F006FB01004FF000000DD0FD
:1040800006B90A26A1683144A160B1F5FA6FE9D3F7
:10409000A0703CA001F018FF002038E0A060E1E72C
:1040A00000F00CFB064600F001FB3043DAD0BDE81F
:1040B000F0410120FFF7A2BF01F036FC49E00120EA
:1040C00025E001F031FC60684FF47A71281AB0FBEA
:1040D000F1F56078854213D9032D01D2284600E01E
:1040E0000320C7B2002605E00121304600F048FB5E
:1040F000761CF6B2BE42F7D37820FFF721FF657039
:10410000032D2AD301F050FC01F0ACF90220BDE8E8
:10411000F04100F077B801F02FFA28B16420B5FB28
:10412000F0F000F0010100E00021012000F028FB88
:104130001B48B0F90000BDE8F04100F073BB01F08E
:10414000F3FBFA20B5FBF0F0C00700D0072000F029
:1041500007FB00F0ABFA0028B1D1BDE8F0810BE01D
:1041600001F0E2FB9620B5FBF0F0C00700D007207D
:10417000BDE8F04100F0F4BABDE8F04101F0D4BB75
:1041800098010020454D455247454E435920636CE8
:104190006561726564202D3E2049444C4500000055
:1041A00008000020014800787047000098010020B6
:1041B000016888694FF2F0029043104388617047AC
:1041C00018B103480068406A70470248FAE70000E7
:1041D000CC0200208402002010B53C210748FEF7E5
:1041E0008BF93C210648FEF787F90448FFF7E0FF0A
:1041F000BDE810400248FFF7DBBF0000840200204A
:10420000CC02002070B5244D04462870FDF7A4FAB6
:104210000026C5E9010600F01BFA052C0DD2DFE8E7
:1042200004F003080D162200BDE87040002000F0E5
:1042300087BA002000F084FA6E7070BD002000F094
:104240007FFA0121022000F09BFA14A007E04FF44E
:104250001670FFF775FE13A001F036FE15A0BDE83D
:10426000704001F085BC012000F06AFAA8780128AE
:104270000ED002280ED011A001F026FE13A001F0EE
:1042800077FC02F01FFABDE8704013A001F01CBEDD
:1042900019A0F1E71EA0EFE7980100205354415206
:1042A0005400000053544F503A2061727269766591
:1042B0006400000053544F500000000053544F500E
:1042C000206279204F5448455200000053544F500B
:1042D00028454D47290000002020686F6C6420535A
:1042E00054415254206B657920327320746F2063DF
:1042F0006C6561720000000053544F5020627920B9
:104300004B4559286C6F6E67207072657373290076
:1043100053544F502062792053455249414C205804
:104320000000000030B50F490D4CCA7F34F8123040
:1043300024F812000A24521CB2FBF4F504FB1522E7
:10434000CA7701F1800254682044C01A506091F885
:1043500020000A2802D2401C81F8200030BD000055
:10436000002F0020F40000202DE9F0474FF0000856
:104370004746464645461E4C00F0BEF8B4F90A00D2
:10438000FCF711F921698946FCF7CFF84146FCF7A3
:1043900042F88046B4F90C00FCF705F94946FCF7F1
:1043A000C4F83946FCF737F80746B4F90E00FCF7B5
:1043B000FAF84946FCF7B9F83146FCF72CF86D1CC1
:1043C0000646642DD8DB0B4D40462946FCF7ADF878
:1043D000206229463846FCF7A8F860622946304634
:1043E000FCF7A3F8A06201202070BDE8F087000070
:1043F000B80000200000C842014840697047000032
:10440000B80000200148C06A70470000B8000020D2
:1044100070B500216B2000F003F93220FDF790F811
:1044200000211A2000F0FCF810211B2000F0F8F801
:104430000A20FDF785F81B2000F08CF8C0F3C100BE
:10444000022809D03220FDF77BF810211B2000F054
:10445000E7F80A20FDF774F810211C2000F0E0F8BE
:1044600000211D2000F0DCF81B2000F073F81A4C2E
:10447000C0F3C10028B1012805D002280DD017488B
:1044800002E0174800E01748206100202070A0617A
:10449000E06106460546606101E01348F4E700F07C
:1044A000BBF8682814D00520FDF74AF86D1CEDB262
:1044B000032DF4D300F020F8B4F90400B4F9061089
:1044C0000843B4F908100843B4F90E10084300D0AB
:1044D0000126667070BD0000B800002033338341B0
:1044E0000000034300008342333303420148407815
:1044F00070470000B800002000B587B005220E21EB
:1045000003A88DE8070001233B22D0210F48FDF7C7
:10451000EDF9002818D1BDF80C0041BA0C48818093
:10452000BDF80E1049BAC180BDF8101049BA01811A
:10453000BDF8141049BA4181BDF8161049BA8181FD
:10454000BDF8181049BAC18107B000BD4030002045
:10455000B80000201FB500218DF80C1005230122A2
:1045600003A98DE80E0013460246D0210348FDF74B
:10457000BDF99DF80C0004B010BD000040300020D3
:1045800070B5FFF7B9FF224CB4F90E000646FCF7F0
:104590000AF82169FBF7C9FF606125781DB1A16A9E
:1045A000FBF78BFF606147F62840864201DAC6427E
:1045B00001DC012000E00020E07020B1606B411CB4
:1045C00001D0401C6063607800281AD0002D18D0FC
:1045D000FDF7C2F80146206BA0B1081A216314D080
:1045E000322800D93220FBF7E7FF0A49FBF79DFF8D
:1045F0006169FBF768FFE16AFBF70DFFE0620120EC
:10460000A07070BD0A202163EDE70120EBE70000F8
:10461000B800002000007A447520FFF79BBF00001F
:1046200003B583B00523012204A98DE80E001346CB
:104630000246D0210248FDF787FA05B000BD000010
:10464000403000200148807870470000B80000200A
:1046500002480021C1700171704700004400002031
:1046600010B5FDF779F8064CE060A06000F010F896
:10467000607020700020A070E0702071607110BD2B
:1046800044000020014800787047000044000020EA
:1046900010B54FF400710448FDF754F808B100203C
:1046A00010BD012010BD0000000C01400249002295
:1046B00008790A7170470000440000200249002276
:1046C000C878CA70704700004400002070B5FFF73A
:1046D000DFFF1A4C002601256178884202D0607005
:1046E000A67014E0A178032904D2491CC9B2A170B4
:1046F00003290CD32178814209D0207020B1FDF725
:104700002BF8A060667102E0607900B9E570FDF7F2
:1047100023F8E168401AB0F5967F0ED32078002880
:104720000BD06079002808D1FDF716F8A168401A6F
:10473000B0F57A7F01D32571657170BD440000200A
:1047400070B5054600242946204600F019F8641C7F
:10475000E4B2032CF7D370BD0020FFF7F1BF0000D7
:1047600070B505465FF0000425FA04F000F0010181
:10477000204600F005F8641CE4B2032CF4D370BDAD
:1047800030B4032814D20B4B012282401C7819B19B
:1047900022431A70012202E094431C700022064B4F
:1047A00003EBC00153F83000898830BCFCF7CFBF61
:1047B00030BC70473800002064690008F0B5EFF3A2
:1047C000108572B60B4BB3F804E0B3F802C05F7803
:1047D000DE8800249C805C805C70DC8005B962B659
:1047E00008B1A0F800C001B10F7002B11680704688
:1047F000F0BD00005400002030B5074C08B1258EF4
:10480000058009B1A08E08800AB1607B1070002B72
:1048100001D0E08E188030BDF400002000207047E9
:10482000002070472DE9F04FA3B000F03BFF46B2E7
:1048300000248246B146ADF858408DF85C4016AA77
:1048400017A9FE48FFF7BAFF0146FC48A3463438D3
:104850004FEA1A4501869DF85C104173BDF8581067
:104860000091C186594612E089B1009B00274FF0A4
:10487000FF0C3A4673B300204FF0010E0EFA00F819
:1048800018EA030F09D0BCF1FF0F02D002E02B465B
:10489000ECE78446521C0746D2B2401CC0B208283E
:1048A000ECD309B9062A15D8BCF1FF0F12D0052A9E
:1048B00010D3BCF1000F07D00020072F06D0002234
:1048C000904205D0012004E00120F6E70122F7E73D
:1048D00000208346491CC9B2022902D2BBF1000F55
:1048E000C2D0FFF789FD10F1FF4F01D2012101E095
:1048F0004FF0FF31DFF84483A8F1340898F9110034
:1049000018B1814201D0082003E098F8120010B1DC
:10491000401E88F8120088F8111098F8130070B340
:10492000401EC0B288F81300CAF3072139B198F8C5
:10493000121011B1012188F8141018B149E088F85B
:10494000134041E098F81400A0B398F80E0088BB1B
:10495000012788F80E7098F81D0058B398F80F00DA
:10496000C82836D200F0E4FFD8F85C10401AC828F6
:104970002FDB00F0DDFF98F80F10062300E01AE0AF
:10498000CDE90001AEA2502102A8FEF745FD02A824
:1049900001F09AFA00F0CCFFC8F85C0098F80F001C
:1049A000401CC0B288F80F00032812D388F80F40CB
:1049B00088F810700DE0BBF1000F08D098F80E00D9
:1049C00038B9062088F8130088F8144001E088F808
:1049D0000E4098F81610C5F3C01011B1491E88F8A2
:1049E000161088B198F8151071B998F8161059B9C1
:1049F000B8F838104EF66022914202D2491CA8F84D
:104A00003810032188F81610CAF3072188F815001A
:104A10001F91012906D171004EB2B8F84010491C0F
:104A2000A8F840101F9921B1032E02DA16F1030FE6
:104A300001DC8F4904E098F81D100029F9D18D4957
:104A4000B1F90070CAF3072105294FF0000A10D30D
:104A500015F0010F0BD050B198F80400C8B1C82868
:104A600002D2401C88F8040088F80A400AE04FF09F
:104A7000010A88F8044098F80A00FA2802D2401C7B
:104A800088F80A0098F80400811E04290BD8012137
:104A90000AE098F80A10052901D3012100E000215D
:104AA00088F80B10DDE70021062801D9012300E07A
:104AB0000023C346424688F8063009B1537A0BB149
:104AC00000232DE092F80BC00123BCF1000F27D08A
:104AD000BBF82C204EF660289C46424502D2521C60
:104AE000ABF82C208BF8091088465A465FEA08017B
:104AF00004D0918D042901D94FF000089BF81D10B6
:104B000019B14FF000088BF80640BCF1000F2BD014
:104B1000002120AA25FA01F3DB0704D0312303E0AA
:104B20004FF0000CDEE730235354491CC9B208296A
:104B3000F0D38DF88840B8F1000F06D00092CDE98F
:104B40000190BBF82C304CA206E004210092CDE984
:104B50000191BBF82C3053A2702103A8FEF75CFC36
:104B600003A801F0B1F91DE0E3B100200DF18001CF
:104B700025FA00F2D20701D0312200E030220A5497
:104B8000401CC0B20828F3D38DF8884005219BF85B
:104B90000A00CDE9000120AB4FA2702103A8FEF767
:104BA0003BFCDDE7BAF1000F27D09BF8080059461F
:104BB00018BB00200DF1800225FA00F3DB0701D0BD
:104BC000312300E030231354401CC0B20828F3D333
:104BD0008DF88840C88D4EF66023984201D2401C63
:104BE000C885CDE90029BBF82E3045A2702103A865
:104BF000FEF712FC03A801F067F951468BF8081084
:104C00008BF805800020DA46009000F0FDFF80461A
:104C1000012000F0F9FF4FF0000BB8F1000F03DAAC
:104C2000C8F100010FFA81F8002801DA404200B211
:104C3000B8F13C0F01DA3C287BDB78E0280100204A
:104C4000474F5552442D54414E47454E543A2073D8
:104C50007472616967687420256420667220284F29
:104C6000443D256C642047573D2564290000000021
:104C7000220000202000002043524F5353202325C0
:104C8000642049523D257320653D252B64207769BA
:104C900064653D25642028737472616967687429AE
:104CA0000000000043524F535320232564204952F3
:104CB0003D257320653D252B6420424C4F434B45D9
:104CC000442862756467657420256429202D3E2080
:104CD0007475726E0000000043524F535320647588
:104CE000702049523D2573206761703D256420285E
:104CF0003C256429202D3E2069676E6F7265640033
:104D00004252414E4348202325642049523D257399
:104D100020653D252B64202D3E204E4F542063728C
:104D20006F737320287475726E29000001E04FF0D4
:104D3000010BFFF761FBFBF744FC00B2002800DA2F
:104D4000404280B2BBF1000F0BD0FFF7EBFA9AF8AC
:104D500020100A2911D39AF81D0030B14FF4C87100
:104D600005E00020FFF7DEFA07E04FF47A71FE4815
:104D70004068814201D801200090FC49002000BF1A
:104D800031F81030AB4205D0401CC0B20428F7D334
:104D90000098A0B1AAF84C404FF41671AAF84A1036
:104DA0009AF81D10D9BB0121D0468AF81D1000F0D9
:104DB000BFFDED49086088F81E40EDA045E0BAF857
:104DC0004A0010B1401EAAF84A00FF2200231946EB
:104DD00018464FF0010B00BF0BFA00FC1CEA050F50
:104DE00005D0FF2A00D10246491C0346C9B2401C27
:104DF000C0B20828F0D3FF2A12D089B104290FD8F5
:104E0000981A401CC0B288420AD1BAF84C004EF63B
:104E10006022904206D2401CAAF84C0002E019E041
:104E2000AAF84C409AF81D105046B1B1B0F84C1099
:104E3000642902D2B0F84A1061B94477A0F84C4016
:104E4000A0F84A408AF81E40D1A001F03DF89AF837
:104E50001D0010B1AAF8324010E0BAF832101E2935
:104E600003D2491CAAF8321008E08AF80F40D04655
:104E70008AF8104000F05CFDC8F85C00BAF8420007
:104E800010B1401EAAF84200FFF7DCFB00B1012080
:104E900080460020FFF794F983460120FFF790F940
:104EA00002465046DAF87010DAF87430C0E91CB2E5
:104EB000BBEB0101A2EB030300D54942002B00DA52
:104EC0005B421944C166B0F84220017F837F0A43E8
:104ED0001A4302D1027C02B10474D3466FF0620A15
:104EE00079B3BA48018801F12900293900B209B221
:104EF000632801DD632002E0504500DA5046632953
:104F000001DD632102E0514500DA514600F084FCE6
:104F100003208BF800005D46ABF82A408BF8024076
:104F2000D5E91A010844CBF86800BBF84800401CDA
:104F3000ABF84800B8F1000F04D0FFF763FAA86798
:104F400001E030E0AC67A86F002110F1FF4F01D302
:104F500080F00040B8F1000F03D09D4A904200DB82
:104F60000121AE6E40F2EE22964205D2B5F84820FD
:104F70003C2A01D2002913D005F81C4F1E21698557
:104F80002866FBF737FBAA8DCDE90001CDE9026267
:104F900090A2602104A8FEF73FFA04A800F094FF55
:104FA00023B0BDE8F08F8046B0F8460050B1401EF7
:104FB000A8F8460000214546084600F02DFC6C8507
:104FC000AC70EDE71F9878B1B8F82A00022804D930
:104FD0000A2088F8030000F0FFFD88F80090A8F888
:104FE0002A4088F802400DE0B8F82A004646401CE6
:104FF00080B2A8F82A0002280CD8B47098F80000F3
:10500000400046B298F8052098F807004146024350
:1050100026D123E00120B07096F90000002801DBC2
:10502000122501E06FF0110500F0D6FD708D962875
:1050300002D99720708500254B481C386C420580AA
:105040004480707F00B1022040F0010000900022F7
:10505000738D2946104600F0F9F9B5E1887908B159
:1050600000264C70C87850B1401EC870032E01DD78
:10507000032604E06FF00200864200DA064612B909
:1050800098F8060050B13848002688F801404FF0E3
:105090007C511C3000F07CFBC8F860403046FBF7C8
:1050A00082FA014630481C3000F076FBFBF789FAA3
:1050B00054494FFA80F998F90100B1F900300A21FA
:1050C00003FB09F393FBF1F64F4BA9EB0000C3463A
:1050D000B3F9003088F80190434393FBF1F030447A
:1050E00000B2FBF760FA0646484A4948CDE900029B
:1050F0001D4831464FF07A53464A203800F018FEDA
:1051000001463046FBF787F9FBF75BFA06B2632EE0
:1051100001DD632602E0564500DA56464FF00008EE
:105120004246404625FA00F111F0010104D01AB9B7
:1051300008F1010202F0FF08401CC0B20A4608282C
:10514000F0D3B8F1020F0ED39BF82110584649B99D
:10515000417F39B19BF8020020B900F0E9FB024918
:10516000896859E084E085E074010020BC6900088A
:10517000474F5552442D454E545259206D61726B24
:10518000207365742028696E20676F75726429002A
:10519000474F5552442D454E545259206D61726B04
:1051A00020636C656172656420286C656674206795
:1051B0006F7572642C206261636B206F6E20706C5F
:1051C00061696E206C696E65290000002200002074
:1051D0000000AA42474F5552442D45584954206477
:1051E0006F6E653A206465673D252E3166206469DF
:1051F00073743D256C75206672616D65733D257510
:105200000000000000000020020000200000C84153
:105210006666E63E8FC2753D401A962828DB002060
:105220000DF15C0125FA00F2D20701D0312200E035
:1052300030220A54401CC0B20828F3D38DF86440D1
:1052400000F076FB6449886000F072FBCDF80080C6
:10525000CDE90370CDE9019617AB60A2482105A8FE
:10526000FEF7DAF805A800F02FFEB8F1020F01D31F
:10527000012100E00021B81904B2B81B8BF82110FD
:1052800005B2632C01DD632402E0544500DA544684
:10529000632D01DD632502E0554500DA554640F2F5
:1052A00026206043FBF77FF95749FBF73EF9DFF80B
:1052B000288140F2262108F11408C8F8000005FBF7
:1052C00001F0FBF770F95049FBF72FF9C8F804001B
:1052D0002046FBF768F94D4C60622846FBF763F9FE
:1052E000206500F0BDFCFBF767F94949FBF71DF9A4
:1052F00004464849A0F50000884200D3464C0020EF
:1053000000F082FCFBF74FF9024623463F48D8F8ED
:10531000001000F0CCFB0546012000F075FCFBF707
:1053200042F90246394823462C30D8F8041000F0E0
:10533000BEFB044639492846FBF7C5F8FBF741F99F
:1053400005B22046FBF73DF904B2632D01DD63256C
:1053500002E0554500DA5546632C01DD632402E086
:10536000544500DA5446A5F109016FF013000B29EA
:1053700001D2142504E005F113010B2900D20546E2
:10538000A4F109010B2901D2142404E004F1130152
:105390000B2900D204469BF81D10584601B102218A
:1053A000827802B101221143C27902B10422114371
:1053B0000091BBF82A303A463146484600F046F89C
:1053C00005481C380580448023B021462846BDE8A6
:1053D000F04F00F021BA000074010020464F524BFC
:1053E0002049523D2573206E3D256420653D2533BF
:1053F0006420633D2533642073703D253264204F63
:10540000443D256C640000000000C842A82E002026
:1054100000007A44CECC4C3D0AD7233C7B148E3F0F
:1054200070B5094C049D08B1A67E067009B1608F65
:1054300008800AB1A08F10800BB1E08F1880002D7A
:1054400001D0E07E287070BDF400002030B5044C1F
:10545000039DA0766187A287E387E57630BD0000D3
:10546000F40000200149002088777047F4000020F4
:105470000148407F70470000F40000202DE9FE4302
:10548000384C0025257065706585A570E57025711F
:105490006571A571E57125662573A573E57325749E
:1054A000658600F045FAE06525876575A575E575A3
:1054B00025766576A585E58525726572A57201203C
:1054C000E072A4F84050A4F84250A4F84450657724
:1054D000A4F84A50A5772449A4F84C50002000BFF6
:1054E00021F81050401CC0B20A28F9D31D4EE577B0
:1054F000803684F82050756004F81C5F00206585B4
:10550000E564A5852565FEF75BFE60650120FEF775
:1055100057FEC4E91605256600F00AFA4FF07C57DD
:105520003060394606F11C0000F032F90F4C114E84
:105530000F4D00960C48CDE901544FF07F580023E1
:105540003A464146583800F09BFA00960648CDE9A5
:10555000015400233A4641462C3800F091FABDE848
:10556000FE830000F4000020002F00200000C8414E
:105570000000C6420000C6C20148807870470000A3
:10558000F4000020044A08B113880380002901D0E8
:10559000508808807047000058010020014A1080A0
:1055A00051807047580100202DE9FC5F00274FF61D
:1055B000FF76B846384639466C462154401CC0B286
:1055C0000828FAD3DFF89CB0DFF89C9000254FF054
:1055D000010A00BF00F04AF8074306400021524686
:1055E00002FA01F3034202D0635C5B1C6354491C62
:1055F000C9B20829F4D36D1CE8B208280ED299F874
:10560000000058B1DBF804305846D9F80C1000BF40
:10561000D0F804C0ACEB030C8C45F9D3EDB2082DE7
:10562000D8D3D9F810104846491CC9F81010B74211
:1056300006D04169491C41618169491CC9F81810AB
:1056400000200823215CB3EB410F04D802FA00F1DB
:1056500089B241EA0808401CC0B20828F2D340468B
:10566000BDE8FC9F001000E0540000202DE9F0414F
:1056700000250B4E2C46012706EBC400818856F806
:105680003400FCF75FF8012803D107FA04F080B278
:105690000543641CE4B2082CEED32846BDE8F08133
:1056A0007C69000870B50024FFF77EFF01460020EA
:1056B0000C4D012303FA00F20A4209D005EBC002A7
:1056C0009279224462F30704220A521C62F30F24E7
:1056D000401CC0B20828EDD3034A204661F31F40A6
:1056E000118170BD7C6900085400002070B5FFF77F
:1056F000BDFF124900234C884EF66022944202D22C
:105700004C88641C4C800C89A04205D08C88944243
:1057100002D28A88521C8A800022012505FA02F4EE
:10572000044201D05B1CDBB2521CD2B2082AF5D372
:105730004A78934201D94B70C88070BD5400002054
:105740000E48016841F0807101600D480021416000
:10575000026842F0010202600068C20709480BD0EB
:10576000094A012101701268084BB2FBF3F2C260D2
:10577000002A00D1C160704701707047FCED00E065
:10578000001000E054000020B001002040420F0053
:105790000022C0E9002170472DE9F04146680F461C
:1057A000044631464FF07E50FAF787FE2168FAF73B
:1057B0008AFE054639463046FAF785FE2946FAF74D
:1057C0002AFE2060BDE8F081FCF790FAFDF765FC49
:1057D000FDF796FAFDF740FBFDF78EFBFDF7CCFBDE
:1057E000FDF700FCFDF734FCFDF716FBFEF7C8FAE9
:1057F000FEF7E6FAFCE7000010B508210548FCF7C3
:10580000A7FF0C210348FCF7A3FFBDE8104000F000
:105810008BB800003C02002010B50C460146002069
:1058200000F006F82146BDE810400120AFF30080EB
:105830002DE9F0410C46632901DD632404E06FF09B
:1058400062018C4200DA0C46344D002610B101286A
:1058500015D016E0604204B2314F002C23DD4FF02A
:1058600000024FF010013846FBF771FF01222021A2
:105870003846FBF76CFF2868C463BDE8F0816042DE
:1058800004B2284F002C2BDD4FF001024FF008012D
:105890003846FBF75CFF002210213846FBF757FF24
:1058A00028680464E9E74FF000020DDA4FF02001A8
:1058B0003846FBF74CFF012210213846FBF747FF23
:1058C00029686042C863D8E710213846FBF73FFFDC
:1058D000002220213846FBF73AFF2868C663CCE750
:1058E0000FDA4FF001024FF010013846FBF72FFF9F
:1058F000002208213846FBF72AFF29686042086425
:10590000BBE7002208213846FBF721FF00221021C7
:105910003846FBF71CFF28680664AEE73C0200200F
:1059200000080140000C014000210846FFF774BF49
:10593000044910B5D1E904014FF47A720023FAF753
:105940003DFC10BD8800002010B50020FEF738FC9B
:10595000084C60600120FEF733FCA0600020C4E921
:105960000400C4E90600C4E90800C4E90A000120F3
:10597000207010BD88000020044910B5D1E908014D
:105980004FF47A720023FAF719FC10BD880000204A
:10599000044910B5D1E906014FF47A720023FAF7F1
:1059A0000DFC10BD88000020FFF7CEBF044910B5E4
:1059B000D1E90A014FF47A720023FAF7FFFB10BD18
:1059C000880000202DE9F0412C4C207868B300209D
:1059D000FEF7F6FB05460120FEF7F2FBA188691AE7
:1059E0000AB22189C4E90150411AD4E9080340F2FE
:1059F000EB15C2FB0503C4E9080309B26B42A1FB26
:105A00000367C8175D1200FB037301FB0533D4E97C
:105A10000A5775197B41C4E90A53002A09DAD517D8
:105A20000023524263EB050304E0BDE8F041FFF7B9
:105A30008BBFD317002904DA05460020494260EBEA
:105A400005005118434140F2EB12A1FB020603FB93
:105A50000262002501FB052102222B46FAF7AEFB6C
:105A6000D4E904321B184A41C4E90432D4E90632AD
:105A700018184A41C4E90602BDE8F08188000020F8
:105A800070B40DF10C0C9CE8700080E80E00002151
:105A9000C0E90861C0E9064570BCAFF30080002191
:105AA0004161C1600161012180F8281070472DE932
:105AB000F04717460A4604469A4639461046FAF712
:105AC000FCFC06462169FAF7F8FC2168FAF7FBFCB2
:105AD000814631466068FAF7F6FC5146FAF7F3FC66
